{
  "_format": "hh-sol-artifact-1",
  "contractName": "TheCompetenciesOfTheFuture",
  "sourceName": "contracts/Nft.sol",
  "abi": [
    {
      "inputs": [
        {
          "internalType": "address",
          "name": "initialOwner",
          "type": "address"
        },
        {
          "internalType": "uint256",
          "name": "initialCost",
          "type": "uint256"
        }
      ],
      "stateMutability": "nonpayable",
      "type": "constructor"
    },
    {
      "inputs": [
        {
          "internalType": "address",
          "name": "sender",
          "type": "address"
        },
        {
          "internalType": "uint256",
          "name": "tokenId",
          "type": "uint256"
        },
        {
          "internalType": "address",
          "name": "owner",
          "type": "address"
        }
      ],
      "name": "ERC721IncorrectOwner",
      "type": "error"
    },
    {
      "inputs": [
        {
          "internalType": "address",
          "name": "operator",
          "type": "address"
        },
        {
          "internalType": "uint256",
          "name": "tokenId",
          "type": "uint256"
        }
      ],
      "name": "ERC721InsufficientApproval",
      "type": "error"
    },
    {
      "inputs": [
        {
          "internalType": "address",
          "name": "approver",
          "type": "address"
        }
      ],
      "name": "ERC721InvalidApprover",
      "type": "error"
    },
    {
      "inputs": [
        {
          "internalType": "address",
          "name": "operator",
          "type": "address"
        }
      ],
      "name": "ERC721InvalidOperator",
      "type": "error"
    },
    {
      "inputs": [
        {
          "internalType": "address",
          "name": "owner",
          "type": "address"
        }
      ],
      "name": "ERC721InvalidOwner",
      "type": "error"
    },
    {
      "inputs": [
        {
          "internalType": "address",
          "name": "receiver",
          "type": "address"
        }
      ],
      "name": "ERC721InvalidReceiver",
      "type": "error"
    },
    {
      "inputs": [
        {
          "internalType": "address",
          "name": "sender",
          "type": "address"
        }
      ],
      "name": "ERC721InvalidSender",
      "type": "error"
    },
    {
      "inputs": [
        {
          "internalType": "uint256",
          "name": "tokenId",
          "type": "uint256"
        }
      ],
      "name": "ERC721NonexistentToken",
      "type": "error"
    },
    {
      "inputs": [
        {
          "internalType": "address",
          "name": "owner",
          "type": "address"
        }
      ],
      "name": "OwnableInvalidOwner",
      "type": "error"
    },
    {
      "inputs": [
        {
          "internalType": "address",
          "name": "account",
          "type": "address"
        }
      ],
      "name": "OwnableUnauthorizedAccount",
      "type": "error"
    },
    {
      "anonymous": false,
      "inputs": [
        {
          "indexed": true,
          "internalType": "address",
          "name": "owner",
          "type": "address"
        },
        {
          "indexed": true,
          "internalType": "address",
          "name": "approved",
          "type": "address"
        },
        {
          "indexed": true,
          "internalType": "uint256",
          "name": "tokenId",
          "type": "uint256"
        }
      ],
      "name": "Approval",
      "type": "event"
    },
    {
      "anonymous": false,
      "inputs": [
        {
          "indexed": true,
          "internalType": "address",
          "name": "owner",
          "type": "address"
        },
        {
          "indexed": true,
          "internalType": "address",
          "name": "operator",
          "type": "address"
        },
        {
          "indexed": false,
          "internalType": "bool",
          "name": "approved",
          "type": "bool"
        }
      ],
      "name": "ApprovalForAll",
      "type": "event"
    },
    {
      "anonymous": false,
      "inputs": [
        {
          "indexed": true,
          "internalType": "address",
          "name": "previousOwner",
          "type": "address"
        },
        {
          "indexed": true,
          "internalType": "address",
          "name": "newOwner",
          "type": "address"
        }
      ],
      "name": "OwnershipTransferred",
      "type": "event"
    },
    {
      "anonymous": false,
      "inputs": [
        {
          "indexed": true,
          "internalType": "address",
          "name": "from",
          "type": "address"
        },
        {
          "indexed": true,
          "internalType": "address",
          "name": "to",
          "type": "address"
        },
        {
          "indexed": true,
          "internalType": "uint256",
          "name": "tokenId",
          "type": "uint256"
        }
      ],
      "name": "Transfer",
      "type": "event"
    },
    {
      "inputs": [
        {
          "internalType": "address",
          "name": "to",
          "type": "address"
        },
        {
          "internalType": "uint256",
          "name": "tokenId",
          "type": "uint256"
        }
      ],
      "name": "approve",
      "outputs": [],
      "stateMutability": "nonpayable",
      "type": "function"
    },
    {
      "inputs": [
        {
          "internalType": "address",
          "name": "owner",
          "type": "address"
        }
      ],
      "name": "balanceOf",
      "outputs": [
        {
          "internalType": "uint256",
          "name": "",
          "type": "uint256"
        }
      ],
      "stateMutability": "view",
      "type": "function"
    },
    {
      "inputs": [
        {
          "internalType": "uint256",
          "name": "_price",
          "type": "uint256"
        }
      ],
      "name": "changePrice",
      "outputs": [],
      "stateMutability": "nonpayable",
      "type": "function"
    },
    {
      "inputs": [],
      "name": "cost",
      "outputs": [
        {
          "internalType": "uint256",
          "name": "",
          "type": "uint256"
        }
      ],
      "stateMutability": "view",
      "type": "function"
    },
    {
      "inputs": [
        {
          "internalType": "uint256",
          "name": "tokenId",
          "type": "uint256"
        }
      ],
      "name": "getApproved",
      "outputs": [
        {
          "internalType": "address",
          "name": "",
          "type": "address"
        }
      ],
      "stateMutability": "view",
      "type": "function"
    },
    {
      "inputs": [
        {
          "internalType": "address",
          "name": "owner",
          "type": "address"
        },
        {
          "internalType": "address",
          "name": "operator",
          "type": "address"
        }
      ],
      "name": "isApprovedForAll",
      "outputs": [
        {
          "internalType": "bool",
          "name": "",
          "type": "bool"
        }
      ],
      "stateMutability": "view",
      "type": "function"
    },
    {
      "inputs": [],
      "name": "mint",
      "outputs": [],
      "stateMutability": "payable",
      "type": "function"
    },
    {
      "inputs": [],
      "name": "name",
      "outputs": [
        {
          "internalType": "string",
          "name": "",
          "type": "string"
        }
      ],
      "stateMutability": "view",
      "type": "function"
    },
    {
      "inputs": [],
      "name": "owner",
      "outputs": [
        {
          "internalType": "address",
          "name": "",
          "type": "address"
        }
      ],
      "stateMutability": "view",
      "type": "function"
    },
    {
      "inputs": [
        {
          "internalType": "uint256",
          "name": "tokenId",
          "type": "uint256"
        }
      ],
      "name": "ownerOf",
      "outputs": [
        {
          "internalType": "address",
          "name": "",
          "type": "address"
        }
      ],
      "stateMutability": "view",
      "type": "function"
    },
    {
      "inputs": [],
      "name": "renounceOwnership",
      "outputs": [],
      "stateMutability": "nonpayable",
      "type": "function"
    },
    {
      "inputs": [
        {
          "internalType": "address",
          "name": "to",
          "type": "address"
        }
      ],
      "name": "safeMint",
      "outputs": [],
      "stateMutability": "nonpayable",
      "type": "function"
    },
    {
      "inputs": [
        {
          "internalType": "address",
          "name": "from",
          "type": "address"
        },
        {
          "internalType": "address",
          "name": "to",
          "type": "address"
        },
        {
          "internalType": "uint256",
          "name": "tokenId",
          "type": "uint256"
        }
      ],
      "name": "safeTransferFrom",
      "outputs": [],
      "stateMutability": "nonpayable",
      "type": "function"
    },
    {
      "inputs": [
        {
          "internalType": "address",
          "name": "from",
          "type": "address"
        },
        {
          "internalType": "address",
          "name": "to",
          "type": "address"
        },
        {
          "internalType": "uint256",
          "name": "tokenId",
          "type": "uint256"
        },
        {
          "internalType": "bytes",
          "name": "data",
          "type": "bytes"
        }
      ],
      "name": "safeTransferFrom",
      "outputs": [],
      "stateMutability": "nonpayable",
      "type": "function"
    },
    {
      "inputs": [
        {
          "internalType": "address",
          "name": "operator",
          "type": "address"
        },
        {
          "internalType": "bool",
          "name": "approved",
          "type": "bool"
        }
      ],
      "name": "setApprovalForAll",
      "outputs": [],
      "stateMutability": "nonpayable",
      "type": "function"
    },
    {
      "inputs": [
        {
          "internalType": "bytes4",
          "name": "interfaceId",
          "type": "bytes4"
        }
      ],
      "name": "supportsInterface",
      "outputs": [
        {
          "internalType": "bool",
          "name": "",
          "type": "bool"
        }
      ],
      "stateMutability": "view",
      "type": "function"
    },
    {
      "inputs": [],
      "name": "symbol",
      "outputs": [
        {
          "internalType": "string",
          "name": "",
          "type": "string"
        }
      ],
      "stateMutability": "view",
      "type": "function"
    },
    {
      "inputs": [
        {
          "internalType": "uint256",
          "name": "tokenId",
          "type": "uint256"
        }
      ],
      "name": "tokenURI",
      "outputs": [
        {
          "internalType": "string",
          "name": "",
          "type": "string"
        }
      ],
      "stateMutability": "view",
      "type": "function"
    },
    {
      "inputs": [
        {
          "internalType": "address",
          "name": "from",
          "type": "address"
        },
        {
          "internalType": "address",
          "name": "to",
          "type": "address"
        },
        {
          "internalType": "uint256",
          "name": "tokenId",
          "type": "uint256"
        }
      ],
      "name": "transferFrom",
      "outputs": [],
      "stateMutability": "nonpayable",
      "type": "function"
    },
    {
      "inputs": [
        {
          "internalType": "address",
          "name": "newOwner",
          "type": "address"
        }
      ],
      "name": "transferOwnership",
      "outputs": [],
      "stateMutability": "nonpayable",
      "type": "function"
    }
  ],
  "bytecode": "0x608060405260006008553480156200001657600080fd5b50604051620027303803806200273083398181016040528101906200003c9190620002d0565b816040518060400160405280601e81526020017f54686520436f6d706574656e63696573206f66205468652046757475726500008152506040518060400160405280600481526020017f54435446000000000000000000000000000000000000000000000000000000008152508160009081620000ba919062000587565b508060019081620000cc919062000587565b505050600073ffffffffffffffffffffffffffffffffffffffff168173ffffffffffffffffffffffffffffffffffffffff1603620001445760006040517f1e4fbdf70000000000000000000000000000000000000000000000000000000081526004016200013b91906200067f565b60405180910390fd5b62000155816200016560201b60201c565b508060088190555050506200069c565b6000600660009054906101000a900473ffffffffffffffffffffffffffffffffffffffff16905081600660006101000a81548173ffffffffffffffffffffffffffffffffffffffff021916908373ffffffffffffffffffffffffffffffffffffffff1602179055508173ffffffffffffffffffffffffffffffffffffffff168173ffffffffffffffffffffffffffffffffffffffff167f8be0079c531659141344cd1fd0a4f28419497f9722a3daafe3b4186f6b6457e060405160405180910390a35050565b600080fd5b600073ffffffffffffffffffffffffffffffffffffffff82169050919050565b60006200025d8262000230565b9050919050565b6200026f8162000250565b81146200027b57600080fd5b50565b6000815190506200028f8162000264565b92915050565b6000819050919050565b620002aa8162000295565b8114620002b657600080fd5b50565b600081519050620002ca816200029f565b92915050565b60008060408385031215620002ea57620002e96200022b565b5b6000620002fa858286016200027e565b92505060206200030d85828601620002b9565b9150509250929050565b600081519050919050565b7f4e487b7100000000000000000000000000000000000000000000000000000000600052604160045260246000fd5b7f4e487b7100000000000000000000000000000000000000000000000000000000600052602260045260246000fd5b600060028204905060018216806200039957607f821691505b602082108103620003af57620003ae62000351565b5b50919050565b60008190508160005260206000209050919050565b60006020601f8301049050919050565b600082821b905092915050565b600060088302620004197fffffffffffffffffffffffffffffffffffffffffffffffffffffffffffffffff82620003da565b620004258683620003da565b95508019841693508086168417925050509392505050565b6000819050919050565b600062000468620004626200045c8462000295565b6200043d565b62000295565b9050919050565b6000819050919050565b620004848362000447565b6200049c62000493826200046f565b848454620003e7565b825550505050565b600090565b620004b3620004a4565b620004c081848462000479565b505050565b5b81811015620004e857620004dc600082620004a9565b600181019050620004c6565b5050565b601f82111562000537576200050181620003b5565b6200050c84620003ca565b810160208510156200051c578190505b620005346200052b85620003ca565b830182620004c5565b50505b505050565b600082821c905092915050565b60006200055c600019846008026200053c565b1980831691505092915050565b600062000577838362000549565b9150826002028217905092915050565b620005928262000317565b67ffffffffffffffff811115620005ae57620005ad62000322565b5b620005ba825462000380565b620005c7828285620004ec565b600060209050601f831160018114620005ff5760008415620005ea578287015190505b620005f6858262000569565b86555062000666565b601f1984166200060f86620003b5565b60005b82811015620006395784890151825560018201915060208501945060208101905062000612565b8683101562000659578489015162000655601f89168262000549565b8355505b6001600288020188555050505b505050505050565b620006798162000250565b82525050565b60006020820190506200069660008301846200066e565b92915050565b61208480620006ac6000396000f3fe60806040526004361061011f5760003560e01c806370a08231116100a0578063a2b40d1911610064578063a2b40d19146103b2578063b88d4fde146103db578063c87b56dd14610404578063e985e9c514610441578063f2fde38b1461047e5761011f565b806370a08231146102df578063715018a61461031c5780638da5cb5b1461033357806395d89b411461035e578063a22cb465146103895761011f565b806313faede6116100e757806313faede6146101fc57806323b872dd1461022757806340d097c31461025057806342842e0e146102795780636352211e146102a25761011f565b806301ffc9a71461012457806306fdde0314610161578063081812fc1461018c578063095ea7b3146101c95780631249c58b146101f2575b600080fd5b34801561013057600080fd5b5061014b60048036038101906101469190611845565b6104a7565b604051610158919061188d565b60405180910390f35b34801561016d57600080fd5b50610176610589565b6040516101839190611938565b60405180910390f35b34801561019857600080fd5b506101b360048036038101906101ae9190611990565b61061b565b6040516101c091906119fe565b60405180910390f35b3480156101d557600080fd5b506101f060048036038101906101eb9190611a45565b610637565b005b6101fa61064d565b005b34801561020857600080fd5b506102116106ba565b60405161021e9190611a94565b60405180910390f35b34801561023357600080fd5b5061024e60048036038101906102499190611aaf565b6106c0565b005b34801561025c57600080fd5b5061027760048036038101906102729190611b02565b6107c2565b005b34801561028557600080fd5b506102a0600480360381019061029b9190611aaf565b6107f3565b005b3480156102ae57600080fd5b506102c960048036038101906102c49190611990565b610813565b6040516102d691906119fe565b60405180910390f35b3480156102eb57600080fd5b5061030660048036038101906103019190611b02565b610825565b6040516103139190611a94565b60405180910390f35b34801561032857600080fd5b506103316108df565b005b34801561033f57600080fd5b506103486108f3565b60405161035591906119fe565b60405180910390f35b34801561036a57600080fd5b5061037361091d565b6040516103809190611938565b60405180910390f35b34801561039557600080fd5b506103b060048036038101906103ab9190611b5b565b6109af565b005b3480156103be57600080fd5b506103d960048036038101906103d49190611990565b6109c5565b005b3480156103e757600080fd5b5061040260048036038101906103fd9190611cd0565b6109d7565b005b34801561041057600080fd5b5061042b60048036038101906104269190611990565b6109f4565b6040516104389190611938565b60405180910390f35b34801561044d57600080fd5b5061046860048036038101906104639190611d53565b610a0f565b604051610475919061188d565b60405180910390f35b34801561048a57600080fd5b506104a560048036038101906104a09190611b02565b610aa3565b005b60007f80ac58cd000000000000000000000000000000000000000000000000000000007bffffffffffffffffffffffffffffffffffffffffffffffffffffffff1916827bffffffffffffffffffffffffffffffffffffffffffffffffffffffff1916148061057257507f5b5e139f000000000000000000000000000000000000000000000000000000007bffffffffffffffffffffffffffffffffffffffffffffffffffffffff1916827bffffffffffffffffffffffffffffffffffffffffffffffffffffffff1916145b80610582575061058182610b29565b5b9050919050565b60606000805461059890611dc2565b80601f01602080910402602001604051908101604052809291908181526020018280546105c490611dc2565b80156106115780601f106105e657610100808354040283529160200191610611565b820191906000526020600020905b8154815290600101906020018083116105f457829003601f168201915b5050505050905090565b600061062682610b93565b5061063082610c1b565b9050919050565b6106498282610644610c58565b610c60565b5050565b600854341015610692576040517f08c379a000000000000000000000000000000000000000000000000000000000815260040161068990611e3f565b60405180910390fd5b6000600760008154809291906106a790611e8e565b9190505590506106b73382610c72565b50565b60085481565b600073ffffffffffffffffffffffffffffffffffffffff168273ffffffffffffffffffffffffffffffffffffffff16036107325760006040517f64a0ae9200000000000000000000000000000000000000000000000000000000815260040161072991906119fe565b60405180910390fd5b60006107468383610741610c58565b610c90565b90508373ffffffffffffffffffffffffffffffffffffffff168173ffffffffffffffffffffffffffffffffffffffff16146107bc578382826040517f64283d7b0000000000000000000000000000000000000000000000000000000081526004016107b393929190611ed6565b60405180910390fd5b50505050565b6107ca610eaa565b6000600760008154809291906107df90611e8e565b9190505590506107ef8282610c72565b5050565b61080e838383604051806020016040528060008152506109d7565b505050565b600061081e82610b93565b9050919050565b60008073ffffffffffffffffffffffffffffffffffffffff168273ffffffffffffffffffffffffffffffffffffffff16036108985760006040517f89c62b6400000000000000000000000000000000000000000000000000000000815260040161088f91906119fe565b60405180910390fd5b600360008373ffffffffffffffffffffffffffffffffffffffff1673ffffffffffffffffffffffffffffffffffffffff168152602001908152602001600020549050919050565b6108e7610eaa565b6108f16000610f31565b565b6000600660009054906101000a900473ffffffffffffffffffffffffffffffffffffffff16905090565b60606001805461092c90611dc2565b80601f016020809104026020016040519081016040528092919081815260200182805461095890611dc2565b80156109a55780601f1061097a576101008083540402835291602001916109a5565b820191906000526020600020905b81548152906001019060200180831161098857829003601f168201915b5050505050905090565b6109c16109ba610c58565b8383610ff7565b5050565b6109cd610eaa565b8060088190555050565b6109e28484846106c0565b6109ee84848484611166565b50505050565b60606109ff82610b93565b50610a0861131d565b9050919050565b6000600560008473ffffffffffffffffffffffffffffffffffffffff1673ffffffffffffffffffffffffffffffffffffffff16815260200190815260200160002060008373ffffffffffffffffffffffffffffffffffffffff1673ffffffffffffffffffffffffffffffffffffffff16815260200190815260200160002060009054906101000a900460ff16905092915050565b610aab610eaa565b600073ffffffffffffffffffffffffffffffffffffffff168173ffffffffffffffffffffffffffffffffffffffff1603610b1d5760006040517f1e4fbdf7000000000000000000000000000000000000000000000000000000008152600401610b1491906119fe565b60405180910390fd5b610b2681610f31565b50565b60007f01ffc9a7000000000000000000000000000000000000000000000000000000007bffffffffffffffffffffffffffffffffffffffffffffffffffffffff1916827bffffffffffffffffffffffffffffffffffffffffffffffffffffffff1916149050919050565b600080610b9f8361133d565b9050600073ffffffffffffffffffffffffffffffffffffffff168173ffffffffffffffffffffffffffffffffffffffff1603610c1257826040517f7e273289000000000000000000000000000000000000000000000000000000008152600401610c099190611a94565b60405180910390fd5b80915050919050565b60006004600083815260200190815260200160002060009054906101000a900473ffffffffffffffffffffffffffffffffffffffff169050919050565b600033905090565b610c6d838383600161137a565b505050565b610c8c82826040518060200160405280600081525061153f565b5050565b600080610c9c8461133d565b9050600073ffffffffffffffffffffffffffffffffffffffff168373ffffffffffffffffffffffffffffffffffffffff1614610cde57610cdd81848661155b565b5b600073ffffffffffffffffffffffffffffffffffffffff168173ffffffffffffffffffffffffffffffffffffffff1614610d6f57610d2060008560008061137a565b6001600360008373ffffffffffffffffffffffffffffffffffffffff1673ffffffffffffffffffffffffffffffffffffffff168152602001908152602001600020600082825403925050819055505b600073ffffffffffffffffffffffffffffffffffffffff168573ffffffffffffffffffffffffffffffffffffffff1614610df2576001600360008773ffffffffffffffffffffffffffffffffffffffff1673ffffffffffffffffffffffffffffffffffffffff168152602001908152602001600020600082825401925050819055505b846002600086815260200190815260200160002060006101000a81548173ffffffffffffffffffffffffffffffffffffffff021916908373ffffffffffffffffffffffffffffffffffffffff160217905550838573ffffffffffffffffffffffffffffffffffffffff168273ffffffffffffffffffffffffffffffffffffffff167fddf252ad1be2c89b69c2b068fc378daa952ba7f163c4a11628f55a4df523b3ef60405160405180910390a4809150509392505050565b610eb2610c58565b73ffffffffffffffffffffffffffffffffffffffff16610ed06108f3565b73ffffffffffffffffffffffffffffffffffffffff1614610f2f57610ef3610c58565b6040517f118cdaa7000000000000000000000000000000000000000000000000000000008152600401610f2691906119fe565b60405180910390fd5b565b6000600660009054906101000a900473ffffffffffffffffffffffffffffffffffffffff16905081600660006101000a81548173ffffffffffffffffffffffffffffffffffffffff021916908373ffffffffffffffffffffffffffffffffffffffff1602179055508173ffffffffffffffffffffffffffffffffffffffff168173ffffffffffffffffffffffffffffffffffffffff167f8be0079c531659141344cd1fd0a4f28419497f9722a3daafe3b4186f6b6457e060405160405180910390a35050565b600073ffffffffffffffffffffffffffffffffffffffff168273ffffffffffffffffffffffffffffffffffffffff160361106857816040517f5b08ba1800000000000000000000000000000000000000000000000000000000815260040161105f91906119fe565b60405180910390fd5b80600560008573ffffffffffffffffffffffffffffffffffffffff1673ffffffffffffffffffffffffffffffffffffffff16815260200190815260200160002060008473ffffffffffffffffffffffffffffffffffffffff1673ffffffffffffffffffffffffffffffffffffffff16815260200190815260200160002060006101000a81548160ff0219169083151502179055508173ffffffffffffffffffffffffffffffffffffffff168373ffffffffffffffffffffffffffffffffffffffff167f17307eab39ab6107e8899845ad3d59bd9653f200f220920489ca2b5937696c3183604051611159919061188d565b60405180910390a3505050565b60008373ffffffffffffffffffffffffffffffffffffffff163b1115611317578273ffffffffffffffffffffffffffffffffffffffff1663150b7a026111aa610c58565b8685856040518563ffffffff1660e01b81526004016111cc9493929190611f62565b6020604051808303816000875af192505050801561120857506040513d601f19601f820116820180604052508101906112059190611fc3565b60015b61128c573d8060008114611238576040519150601f19603f3d011682016040523d82523d6000602084013e61123d565b606091505b50600081510361128457836040517f64a0ae9200000000000000000000000000000000000000000000000000000000815260040161127b91906119fe565b60405180910390fd5b805181602001fd5b63150b7a0260e01b7bffffffffffffffffffffffffffffffffffffffffffffffffffffffff1916817bffffffffffffffffffffffffffffffffffffffffffffffffffffffff19161461131557836040517f64a0ae9200000000000000000000000000000000000000000000000000000000815260040161130c91906119fe565b60405180910390fd5b505b50505050565b606060405180606001604052806035815260200161201a60359139905090565b60006002600083815260200190815260200160002060009054906101000a900473ffffffffffffffffffffffffffffffffffffffff169050919050565b80806113b35750600073ffffffffffffffffffffffffffffffffffffffff168273ffffffffffffffffffffffffffffffffffffffff1614155b156114e75760006113c384610b93565b9050600073ffffffffffffffffffffffffffffffffffffffff168373ffffffffffffffffffffffffffffffffffffffff161415801561142e57508273ffffffffffffffffffffffffffffffffffffffff168173ffffffffffffffffffffffffffffffffffffffff1614155b8015611441575061143f8184610a0f565b155b1561148357826040517fa9fbf51f00000000000000000000000000000000000000000000000000000000815260040161147a91906119fe565b60405180910390fd5b81156114e557838573ffffffffffffffffffffffffffffffffffffffff168273ffffffffffffffffffffffffffffffffffffffff167f8c5be1e5ebec7d5bd14f71427d1e84f3dd0314c0f7b2291e5b200ac8c7c3b92560405160405180910390a45b505b836004600085815260200190815260200160002060006101000a81548173ffffffffffffffffffffffffffffffffffffffff021916908373ffffffffffffffffffffffffffffffffffffffff16021790555050505050565b611549838361161f565b6115566000848484611166565b505050565b611566838383611718565b61161a57600073ffffffffffffffffffffffffffffffffffffffff168373ffffffffffffffffffffffffffffffffffffffff16036115db57806040517f7e2732890000000000000000000000000000000000000000000000000000000081526004016115d29190611a94565b60405180910390fd5b81816040517f177e802f000000000000000000000000000000000000000000000000000000008152600401611611929190611ff0565b60405180910390fd5b505050565b600073ffffffffffffffffffffffffffffffffffffffff168273ffffffffffffffffffffffffffffffffffffffff16036116915760006040517f64a0ae9200000000000000000000000000000000000000000000000000000000815260040161168891906119fe565b60405180910390fd5b600061169f83836000610c90565b9050600073ffffffffffffffffffffffffffffffffffffffff168173ffffffffffffffffffffffffffffffffffffffff16146117135760006040517f73c6ac6e00000000000000000000000000000000000000000000000000000000815260040161170a91906119fe565b60405180910390fd5b505050565b60008073ffffffffffffffffffffffffffffffffffffffff168373ffffffffffffffffffffffffffffffffffffffff16141580156117d057508273ffffffffffffffffffffffffffffffffffffffff168473ffffffffffffffffffffffffffffffffffffffff16148061179157506117908484610a0f565b5b806117cf57508273ffffffffffffffffffffffffffffffffffffffff166117b783610c1b565b73ffffffffffffffffffffffffffffffffffffffff16145b5b90509392505050565b6000604051905090565b600080fd5b600080fd5b60007fffffffff0000000000000000000000000000000000000000000000000000000082169050919050565b611822816117ed565b811461182d57600080fd5b50565b60008135905061183f81611819565b92915050565b60006020828403121561185b5761185a6117e3565b5b600061186984828501611830565b91505092915050565b60008115159050919050565b61188781611872565b82525050565b60006020820190506118a2600083018461187e565b92915050565b600081519050919050565b600082825260208201905092915050565b60005b838110156118e25780820151818401526020810190506118c7565b60008484015250505050565b6000601f19601f8301169050919050565b600061190a826118a8565b61191481856118b3565b93506119248185602086016118c4565b61192d816118ee565b840191505092915050565b6000602082019050818103600083015261195281846118ff565b905092915050565b6000819050919050565b61196d8161195a565b811461197857600080fd5b50565b60008135905061198a81611964565b92915050565b6000602082840312156119a6576119a56117e3565b5b60006119b48482850161197b565b91505092915050565b600073ffffffffffffffffffffffffffffffffffffffff82169050919050565b60006119e8826119bd565b9050919050565b6119f8816119dd565b82525050565b6000602082019050611a1360008301846119ef565b92915050565b611a22816119dd565b8114611a2d57600080fd5b50565b600081359050611a3f81611a19565b92915050565b60008060408385031215611a5c57611a5b6117e3565b5b6000611a6a85828601611a30565b9250506020611a7b8582860161197b565b9150509250929050565b611a8e8161195a565b82525050565b6000602082019050611aa96000830184611a85565b92915050565b600080600060608486031215611ac857611ac76117e3565b5b6000611ad686828701611a30565b9350506020611ae786828701611a30565b9250506040611af88682870161197b565b9150509250925092565b600060208284031215611b1857611b176117e3565b5b6000611b2684828501611a30565b91505092915050565b611b3881611872565b8114611b4357600080fd5b50565b600081359050611b5581611b2f565b92915050565b60008060408385031215611b7257611b716117e3565b5b6000611b8085828601611a30565b9250506020611b9185828601611b46565b9150509250929050565b600080fd5b600080fd5b7f4e487b7100000000000000000000000000000000000000000000000000000000600052604160045260246000fd5b611bdd826118ee565b810181811067ffffffffffffffff82111715611bfc57611bfb611ba5565b5b80604052505050565b6000611c0f6117d9565b9050611c1b8282611bd4565b919050565b600067ffffffffffffffff821115611c3b57611c3a611ba5565b5b611c44826118ee565b9050602081019050919050565b82818337600083830152505050565b6000611c73611c6e84611c20565b611c05565b905082815260208101848484011115611c8f57611c8e611ba0565b5b611c9a848285611c51565b509392505050565b600082601f830112611cb757611cb6611b9b565b5b8135611cc7848260208601611c60565b91505092915050565b60008060008060808587031215611cea57611ce96117e3565b5b6000611cf887828801611a30565b9450506020611d0987828801611a30565b9350506040611d1a8782880161197b565b925050606085013567ffffffffffffffff811115611d3b57611d3a6117e8565b5b611d4787828801611ca2565b91505092959194509250565b60008060408385031215611d6a57611d696117e3565b5b6000611d7885828601611a30565b9250506020611d8985828601611a30565b9150509250929050565b7f4e487b7100000000000000000000000000000000000000000000000000000000600052602260045260246000fd5b60006002820490506001821680611dda57607f821691505b602082108103611ded57611dec611d93565b5b50919050565b7f496e73756666696369656e742066756e64732100000000000000000000000000600082015250565b6000611e296013836118b3565b9150611e3482611df3565b602082019050919050565b60006020820190508181036000830152611e5881611e1c565b9050919050565b7f4e487b7100000000000000000000000000000000000000000000000000000000600052601160045260246000fd5b6000611e998261195a565b91507fffffffffffffffffffffffffffffffffffffffffffffffffffffffffffffffff8203611ecb57611eca611e5f565b5b600182019050919050565b6000606082019050611eeb60008301866119ef565b611ef86020830185611a85565b611f0560408301846119ef565b949350505050565b600081519050919050565b600082825260208201905092915050565b6000611f3482611f0d565b611f3e8185611f18565b9350611f4e8185602086016118c4565b611f57816118ee565b840191505092915050565b6000608082019050611f7760008301876119ef565b611f8460208301866119ef565b611f916040830185611a85565b8181036060830152611fa38184611f29565b905095945050505050565b600081519050611fbd81611819565b92915050565b600060208284031215611fd957611fd86117e3565b5b6000611fe784828501611fae565b91505092915050565b600060408201905061200560008301856119ef565b6120126020830184611a85565b939250505056fe697066733a2f2f516d637551616b50554c4d79314d4a74476a78413350577943665863546577576b32547577474448723847674158a264697066735822122008decfb04cc7c68c5a2a80bea596c6c87f3ebfea6d4f226667ca9972ba7ba61264736f6c63430008180033",
  "linkReferences": {},
  "deployedLinkReferences": {}
}