{
  "_format": "hh-sol-artifact-1",
  "contractName": "TheCompetenciesOfTheFuture",
  "sourceName": "contracts/Nft.sol",
  "abi": [
    {
      "inputs": [
        {
          "internalType": "address",
          "name": "initialOwner",
          "type": "address"
        },
        {
          "internalType": "uint256",
          "name": "initialCost",
          "type": "uint256"
        }
      ],
      "stateMutability": "nonpayable",
      "type": "constructor"
    },
    {
      "inputs": [
        {
          "internalType": "address",
          "name": "sender",
          "type": "address"
        },
        {
          "internalType": "uint256",
          "name": "tokenId",
          "type": "uint256"
        },
        {
          "internalType": "address",
          "name": "owner",
          "type": "address"
        }
      ],
      "name": "ERC721IncorrectOwner",
      "type": "error"
    },
    {
      "inputs": [
        {
          "internalType": "address",
          "name": "operator",
          "type": "address"
        },
        {
          "internalType": "uint256",
          "name": "tokenId",
          "type": "uint256"
        }
      ],
      "name": "ERC721InsufficientApproval",
      "type": "error"
    },
    {
      "inputs": [
        {
          "internalType": "address",
          "name": "approver",
          "type": "address"
        }
      ],
      "name": "ERC721InvalidApprover",
      "type": "error"
    },
    {
      "inputs": [
        {
          "internalType": "address",
          "name": "operator",
          "type": "address"
        }
      ],
      "name": "ERC721InvalidOperator",
      "type": "error"
    },
    {
      "inputs": [
        {
          "internalType": "address",
          "name": "owner",
          "type": "address"
        }
      ],
      "name": "ERC721InvalidOwner",
      "type": "error"
    },
    {
      "inputs": [
        {
          "internalType": "address",
          "name": "receiver",
          "type": "address"
        }
      ],
      "name": "ERC721InvalidReceiver",
      "type": "error"
    },
    {
      "inputs": [
        {
          "internalType": "address",
          "name": "sender",
          "type": "address"
        }
      ],
      "name": "ERC721InvalidSender",
      "type": "error"
    },
    {
      "inputs": [
        {
          "internalType": "uint256",
          "name": "tokenId",
          "type": "uint256"
        }
      ],
      "name": "ERC721NonexistentToken",
      "type": "error"
    },
    {
      "inputs": [
        {
          "internalType": "address",
          "name": "owner",
          "type": "address"
        }
      ],
      "name": "OwnableInvalidOwner",
      "type": "error"
    },
    {
      "inputs": [
        {
          "internalType": "address",
          "name": "account",
          "type": "address"
        }
      ],
      "name": "OwnableUnauthorizedAccount",
      "type": "error"
    },
    {
      "anonymous": false,
      "inputs": [
        {
          "indexed": true,
          "internalType": "address",
          "name": "owner",
          "type": "address"
        },
        {
          "indexed": true,
          "internalType": "address",
          "name": "approved",
          "type": "address"
        },
        {
          "indexed": true,
          "internalType": "uint256",
          "name": "tokenId",
          "type": "uint256"
        }
      ],
      "name": "Approval",
      "type": "event"
    },
    {
      "anonymous": false,
      "inputs": [
        {
          "indexed": true,
          "internalType": "address",
          "name": "owner",
          "type": "address"
        },
        {
          "indexed": true,
          "internalType": "address",
          "name": "operator",
          "type": "address"
        },
        {
          "indexed": false,
          "internalType": "bool",
          "name": "approved",
          "type": "bool"
        }
      ],
      "name": "ApprovalForAll",
      "type": "event"
    },
    {
      "anonymous": false,
      "inputs": [
        {
          "indexed": true,
          "internalType": "address",
          "name": "previousOwner",
          "type": "address"
        },
        {
          "indexed": true,
          "internalType": "address",
          "name": "newOwner",
          "type": "address"
        }
      ],
      "name": "OwnershipTransferred",
      "type": "event"
    },
    {
      "anonymous": false,
      "inputs": [
        {
          "indexed": true,
          "internalType": "address",
          "name": "from",
          "type": "address"
        },
        {
          "indexed": true,
          "internalType": "address",
          "name": "to",
          "type": "address"
        },
        {
          "indexed": true,
          "internalType": "uint256",
          "name": "tokenId",
          "type": "uint256"
        }
      ],
      "name": "Transfer",
      "type": "event"
    },
    {
      "inputs": [
        {
          "internalType": "address",
          "name": "to",
          "type": "address"
        },
        {
          "internalType": "uint256",
          "name": "tokenId",
          "type": "uint256"
        }
      ],
      "name": "approve",
      "outputs": [],
      "stateMutability": "nonpayable",
      "type": "function"
    },
    {
      "inputs": [
        {
          "internalType": "address",
          "name": "owner",
          "type": "address"
        }
      ],
      "name": "balanceOf",
      "outputs": [
        {
          "internalType": "uint256",
          "name": "",
          "type": "uint256"
        }
      ],
      "stateMutability": "view",
      "type": "function"
    },
    {
      "inputs": [],
      "name": "cost",
      "outputs": [
        {
          "internalType": "uint256",
          "name": "",
          "type": "uint256"
        }
      ],
      "stateMutability": "view",
      "type": "function"
    },
    {
      "inputs": [
        {
          "internalType": "uint256",
          "name": "tokenId",
          "type": "uint256"
        }
      ],
      "name": "getApproved",
      "outputs": [
        {
          "internalType": "address",
          "name": "",
          "type": "address"
        }
      ],
      "stateMutability": "view",
      "type": "function"
    },
    {
      "inputs": [
        {
          "internalType": "address",
          "name": "owner",
          "type": "address"
        },
        {
          "internalType": "address",
          "name": "operator",
          "type": "address"
        }
      ],
      "name": "isApprovedForAll",
      "outputs": [
        {
          "internalType": "bool",
          "name": "",
          "type": "bool"
        }
      ],
      "stateMutability": "view",
      "type": "function"
    },
    {
      "inputs": [],
      "name": "mint",
      "outputs": [],
      "stateMutability": "payable",
      "type": "function"
    },
    {
      "inputs": [],
      "name": "name",
      "outputs": [
        {
          "internalType": "string",
          "name": "",
          "type": "string"
        }
      ],
      "stateMutability": "view",
      "type": "function"
    },
    {
      "inputs": [],
      "name": "owner",
      "outputs": [
        {
          "internalType": "address",
          "name": "",
          "type": "address"
        }
      ],
      "stateMutability": "view",
      "type": "function"
    },
    {
      "inputs": [
        {
          "internalType": "uint256",
          "name": "tokenId",
          "type": "uint256"
        }
      ],
      "name": "ownerOf",
      "outputs": [
        {
          "internalType": "address",
          "name": "",
          "type": "address"
        }
      ],
      "stateMutability": "view",
      "type": "function"
    },
    {
      "inputs": [],
      "name": "renounceOwnership",
      "outputs": [],
      "stateMutability": "nonpayable",
      "type": "function"
    },
    {
      "inputs": [
        {
          "internalType": "address",
          "name": "to",
          "type": "address"
        }
      ],
      "name": "safeMint",
      "outputs": [],
      "stateMutability": "nonpayable",
      "type": "function"
    },
    {
      "inputs": [
        {
          "internalType": "address",
          "name": "from",
          "type": "address"
        },
        {
          "internalType": "address",
          "name": "to",
          "type": "address"
        },
        {
          "internalType": "uint256",
          "name": "tokenId",
          "type": "uint256"
        }
      ],
      "name": "safeTransferFrom",
      "outputs": [],
      "stateMutability": "nonpayable",
      "type": "function"
    },
    {
      "inputs": [
        {
          "internalType": "address",
          "name": "from",
          "type": "address"
        },
        {
          "internalType": "address",
          "name": "to",
          "type": "address"
        },
        {
          "internalType": "uint256",
          "name": "tokenId",
          "type": "uint256"
        },
        {
          "internalType": "bytes",
          "name": "data",
          "type": "bytes"
        }
      ],
      "name": "safeTransferFrom",
      "outputs": [],
      "stateMutability": "nonpayable",
      "type": "function"
    },
    {
      "inputs": [
        {
          "internalType": "address",
          "name": "operator",
          "type": "address"
        },
        {
          "internalType": "bool",
          "name": "approved",
          "type": "bool"
        }
      ],
      "name": "setApprovalForAll",
      "outputs": [],
      "stateMutability": "nonpayable",
      "type": "function"
    },
    {
      "inputs": [
        {
          "internalType": "bytes4",
          "name": "interfaceId",
          "type": "bytes4"
        }
      ],
      "name": "supportsInterface",
      "outputs": [
        {
          "internalType": "bool",
          "name": "",
          "type": "bool"
        }
      ],
      "stateMutability": "view",
      "type": "function"
    },
    {
      "inputs": [],
      "name": "symbol",
      "outputs": [
        {
          "internalType": "string",
          "name": "",
          "type": "string"
        }
      ],
      "stateMutability": "view",
      "type": "function"
    },
    {
      "inputs": [
        {
          "internalType": "uint256",
          "name": "tokenId",
          "type": "uint256"
        }
      ],
      "name": "tokenURI",
      "outputs": [
        {
          "internalType": "string",
          "name": "",
          "type": "string"
        }
      ],
      "stateMutability": "view",
      "type": "function"
    },
    {
      "inputs": [
        {
          "internalType": "address",
          "name": "from",
          "type": "address"
        },
        {
          "internalType": "address",
          "name": "to",
          "type": "address"
        },
        {
          "internalType": "uint256",
          "name": "tokenId",
          "type": "uint256"
        }
      ],
      "name": "transferFrom",
      "outputs": [],
      "stateMutability": "nonpayable",
      "type": "function"
    },
    {
      "inputs": [
        {
          "internalType": "address",
          "name": "newOwner",
          "type": "address"
        }
      ],
      "name": "transferOwnership",
      "outputs": [],
      "stateMutability": "nonpayable",
      "type": "function"
    }
  ],
  "bytecode": "0x608060405260006008553480156200001657600080fd5b50604051620026ea380380620026ea83398181016040528101906200003c9190620002d0565b816040518060400160405280601e81526020017f54686520436f6d706574656e63696573206f66205468652046757475726500008152506040518060400160405280600481526020017f54435446000000000000000000000000000000000000000000000000000000008152508160009081620000ba919062000587565b508060019081620000cc919062000587565b505050600073ffffffffffffffffffffffffffffffffffffffff168173ffffffffffffffffffffffffffffffffffffffff1603620001445760006040517f1e4fbdf70000000000000000000000000000000000000000000000000000000081526004016200013b91906200067f565b60405180910390fd5b62000155816200016560201b60201c565b508060088190555050506200069c565b6000600660009054906101000a900473ffffffffffffffffffffffffffffffffffffffff16905081600660006101000a81548173ffffffffffffffffffffffffffffffffffffffff021916908373ffffffffffffffffffffffffffffffffffffffff1602179055508173ffffffffffffffffffffffffffffffffffffffff168173ffffffffffffffffffffffffffffffffffffffff167f8be0079c531659141344cd1fd0a4f28419497f9722a3daafe3b4186f6b6457e060405160405180910390a35050565b600080fd5b600073ffffffffffffffffffffffffffffffffffffffff82169050919050565b60006200025d8262000230565b9050919050565b6200026f8162000250565b81146200027b57600080fd5b50565b6000815190506200028f8162000264565b92915050565b6000819050919050565b620002aa8162000295565b8114620002b657600080fd5b50565b600081519050620002ca816200029f565b92915050565b60008060408385031215620002ea57620002e96200022b565b5b6000620002fa858286016200027e565b92505060206200030d85828601620002b9565b9150509250929050565b600081519050919050565b7f4e487b7100000000000000000000000000000000000000000000000000000000600052604160045260246000fd5b7f4e487b7100000000000000000000000000000000000000000000000000000000600052602260045260246000fd5b600060028204905060018216806200039957607f821691505b602082108103620003af57620003ae62000351565b5b50919050565b60008190508160005260206000209050919050565b60006020601f8301049050919050565b600082821b905092915050565b600060088302620004197fffffffffffffffffffffffffffffffffffffffffffffffffffffffffffffffff82620003da565b620004258683620003da565b95508019841693508086168417925050509392505050565b6000819050919050565b600062000468620004626200045c8462000295565b6200043d565b62000295565b9050919050565b6000819050919050565b620004848362000447565b6200049c62000493826200046f565b848454620003e7565b825550505050565b600090565b620004b3620004a4565b620004c081848462000479565b505050565b5b81811015620004e857620004dc600082620004a9565b600181019050620004c6565b5050565b601f82111562000537576200050181620003b5565b6200050c84620003ca565b810160208510156200051c578190505b620005346200052b85620003ca565b830182620004c5565b50505b505050565b600082821c905092915050565b60006200055c600019846008026200053c565b1980831691505092915050565b600062000577838362000549565b9150826002028217905092915050565b620005928262000317565b67ffffffffffffffff811115620005ae57620005ad62000322565b5b620005ba825462000380565b620005c7828285620004ec565b600060209050601f831160018114620005ff5760008415620005ea578287015190505b620005f6858262000569565b86555062000666565b601f1984166200060f86620003b5565b60005b82811015620006395784890151825560018201915060208501945060208101905062000612565b8683101562000659578489015162000655601f89168262000549565b8355505b6001600288020188555050505b505050505050565b620006798162000250565b82525050565b60006020820190506200069660008301846200066e565b92915050565b61203e80620006ac6000396000f3fe6080604052600436106101145760003560e01c80636352211e116100a0578063a22cb46511610064578063a22cb4651461037e578063b88d4fde146103a7578063c87b56dd146103d0578063e985e9c51461040d578063f2fde38b1461044a57610114565b80636352211e1461029757806370a08231146102d4578063715018a6146103115780638da5cb5b1461032857806395d89b411461035357610114565b80631249c58b116100e75780631249c58b146101e757806313faede6146101f157806323b872dd1461021c57806340d097c31461024557806342842e0e1461026e57610114565b806301ffc9a71461011957806306fdde0314610156578063081812fc14610181578063095ea7b3146101be575b600080fd5b34801561012557600080fd5b50610140600480360381019061013b91906117ff565b610473565b60405161014d9190611847565b60405180910390f35b34801561016257600080fd5b5061016b610555565b60405161017891906118f2565b60405180910390f35b34801561018d57600080fd5b506101a860048036038101906101a3919061194a565b6105e7565b6040516101b591906119b8565b60405180910390f35b3480156101ca57600080fd5b506101e560048036038101906101e091906119ff565b610603565b005b6101ef610619565b005b3480156101fd57600080fd5b50610206610686565b6040516102139190611a4e565b60405180910390f35b34801561022857600080fd5b50610243600480360381019061023e9190611a69565b61068c565b005b34801561025157600080fd5b5061026c60048036038101906102679190611abc565b61078e565b005b34801561027a57600080fd5b5061029560048036038101906102909190611a69565b6107bf565b005b3480156102a357600080fd5b506102be60048036038101906102b9919061194a565b6107df565b6040516102cb91906119b8565b60405180910390f35b3480156102e057600080fd5b506102fb60048036038101906102f69190611abc565b6107f1565b6040516103089190611a4e565b60405180910390f35b34801561031d57600080fd5b506103266108ab565b005b34801561033457600080fd5b5061033d6108bf565b60405161034a91906119b8565b60405180910390f35b34801561035f57600080fd5b506103686108e9565b60405161037591906118f2565b60405180910390f35b34801561038a57600080fd5b506103a560048036038101906103a09190611b15565b61097b565b005b3480156103b357600080fd5b506103ce60048036038101906103c99190611c8a565b610991565b005b3480156103dc57600080fd5b506103f760048036038101906103f2919061194a565b6109ae565b60405161040491906118f2565b60405180910390f35b34801561041957600080fd5b50610434600480360381019061042f9190611d0d565b6109c9565b6040516104419190611847565b60405180910390f35b34801561045657600080fd5b50610471600480360381019061046c9190611abc565b610a5d565b005b60007f80ac58cd000000000000000000000000000000000000000000000000000000007bffffffffffffffffffffffffffffffffffffffffffffffffffffffff1916827bffffffffffffffffffffffffffffffffffffffffffffffffffffffff1916148061053e57507f5b5e139f000000000000000000000000000000000000000000000000000000007bffffffffffffffffffffffffffffffffffffffffffffffffffffffff1916827bffffffffffffffffffffffffffffffffffffffffffffffffffffffff1916145b8061054e575061054d82610ae3565b5b9050919050565b60606000805461056490611d7c565b80601f016020809104026020016040519081016040528092919081815260200182805461059090611d7c565b80156105dd5780601f106105b2576101008083540402835291602001916105dd565b820191906000526020600020905b8154815290600101906020018083116105c057829003601f168201915b5050505050905090565b60006105f282610b4d565b506105fc82610bd5565b9050919050565b6106158282610610610c12565b610c1a565b5050565b60085434101561065e576040517f08c379a000000000000000000000000000000000000000000000000000000000815260040161065590611df9565b60405180910390fd5b60006007600081548092919061067390611e48565b9190505590506106833382610c2c565b50565b60085481565b600073ffffffffffffffffffffffffffffffffffffffff168273ffffffffffffffffffffffffffffffffffffffff16036106fe5760006040517f64a0ae920000000000000000000000000000000000000000000000000000000081526004016106f591906119b8565b60405180910390fd5b6000610712838361070d610c12565b610c4a565b90508373ffffffffffffffffffffffffffffffffffffffff168173ffffffffffffffffffffffffffffffffffffffff1614610788578382826040517f64283d7b00000000000000000000000000000000000000000000000000000000815260040161077f93929190611e90565b60405180910390fd5b50505050565b610796610e64565b6000600760008154809291906107ab90611e48565b9190505590506107bb8282610c2c565b5050565b6107da83838360405180602001604052806000815250610991565b505050565b60006107ea82610b4d565b9050919050565b60008073ffffffffffffffffffffffffffffffffffffffff168273ffffffffffffffffffffffffffffffffffffffff16036108645760006040517f89c62b6400000000000000000000000000000000000000000000000000000000815260040161085b91906119b8565b60405180910390fd5b600360008373ffffffffffffffffffffffffffffffffffffffff1673ffffffffffffffffffffffffffffffffffffffff168152602001908152602001600020549050919050565b6108b3610e64565b6108bd6000610eeb565b565b6000600660009054906101000a900473ffffffffffffffffffffffffffffffffffffffff16905090565b6060600180546108f890611d7c565b80601f016020809104026020016040519081016040528092919081815260200182805461092490611d7c565b80156109715780601f1061094657610100808354040283529160200191610971565b820191906000526020600020905b81548152906001019060200180831161095457829003601f168201915b5050505050905090565b61098d610986610c12565b8383610fb1565b5050565b61099c84848461068c565b6109a884848484611120565b50505050565b60606109b982610b4d565b506109c26112d7565b9050919050565b6000600560008473ffffffffffffffffffffffffffffffffffffffff1673ffffffffffffffffffffffffffffffffffffffff16815260200190815260200160002060008373ffffffffffffffffffffffffffffffffffffffff1673ffffffffffffffffffffffffffffffffffffffff16815260200190815260200160002060009054906101000a900460ff16905092915050565b610a65610e64565b600073ffffffffffffffffffffffffffffffffffffffff168173ffffffffffffffffffffffffffffffffffffffff1603610ad75760006040517f1e4fbdf7000000000000000000000000000000000000000000000000000000008152600401610ace91906119b8565b60405180910390fd5b610ae081610eeb565b50565b60007f01ffc9a7000000000000000000000000000000000000000000000000000000007bffffffffffffffffffffffffffffffffffffffffffffffffffffffff1916827bffffffffffffffffffffffffffffffffffffffffffffffffffffffff1916149050919050565b600080610b59836112f7565b9050600073ffffffffffffffffffffffffffffffffffffffff168173ffffffffffffffffffffffffffffffffffffffff1603610bcc57826040517f7e273289000000000000000000000000000000000000000000000000000000008152600401610bc39190611a4e565b60405180910390fd5b80915050919050565b60006004600083815260200190815260200160002060009054906101000a900473ffffffffffffffffffffffffffffffffffffffff169050919050565b600033905090565b610c278383836001611334565b505050565b610c468282604051806020016040528060008152506114f9565b5050565b600080610c56846112f7565b9050600073ffffffffffffffffffffffffffffffffffffffff168373ffffffffffffffffffffffffffffffffffffffff1614610c9857610c97818486611515565b5b600073ffffffffffffffffffffffffffffffffffffffff168173ffffffffffffffffffffffffffffffffffffffff1614610d2957610cda600085600080611334565b6001600360008373ffffffffffffffffffffffffffffffffffffffff1673ffffffffffffffffffffffffffffffffffffffff168152602001908152602001600020600082825403925050819055505b600073ffffffffffffffffffffffffffffffffffffffff168573ffffffffffffffffffffffffffffffffffffffff1614610dac576001600360008773ffffffffffffffffffffffffffffffffffffffff1673ffffffffffffffffffffffffffffffffffffffff168152602001908152602001600020600082825401925050819055505b846002600086815260200190815260200160002060006101000a81548173ffffffffffffffffffffffffffffffffffffffff021916908373ffffffffffffffffffffffffffffffffffffffff160217905550838573ffffffffffffffffffffffffffffffffffffffff168273ffffffffffffffffffffffffffffffffffffffff167fddf252ad1be2c89b69c2b068fc378daa952ba7f163c4a11628f55a4df523b3ef60405160405180910390a4809150509392505050565b610e6c610c12565b73ffffffffffffffffffffffffffffffffffffffff16610e8a6108bf565b73ffffffffffffffffffffffffffffffffffffffff1614610ee957610ead610c12565b6040517f118cdaa7000000000000000000000000000000000000000000000000000000008152600401610ee091906119b8565b60405180910390fd5b565b6000600660009054906101000a900473ffffffffffffffffffffffffffffffffffffffff16905081600660006101000a81548173ffffffffffffffffffffffffffffffffffffffff021916908373ffffffffffffffffffffffffffffffffffffffff1602179055508173ffffffffffffffffffffffffffffffffffffffff168173ffffffffffffffffffffffffffffffffffffffff167f8be0079c531659141344cd1fd0a4f28419497f9722a3daafe3b4186f6b6457e060405160405180910390a35050565b600073ffffffffffffffffffffffffffffffffffffffff168273ffffffffffffffffffffffffffffffffffffffff160361102257816040517f5b08ba1800000000000000000000000000000000000000000000000000000000815260040161101991906119b8565b60405180910390fd5b80600560008573ffffffffffffffffffffffffffffffffffffffff1673ffffffffffffffffffffffffffffffffffffffff16815260200190815260200160002060008473ffffffffffffffffffffffffffffffffffffffff1673ffffffffffffffffffffffffffffffffffffffff16815260200190815260200160002060006101000a81548160ff0219169083151502179055508173ffffffffffffffffffffffffffffffffffffffff168373ffffffffffffffffffffffffffffffffffffffff167f17307eab39ab6107e8899845ad3d59bd9653f200f220920489ca2b5937696c31836040516111139190611847565b60405180910390a3505050565b60008373ffffffffffffffffffffffffffffffffffffffff163b11156112d1578273ffffffffffffffffffffffffffffffffffffffff1663150b7a02611164610c12565b8685856040518563ffffffff1660e01b81526004016111869493929190611f1c565b6020604051808303816000875af19250505080156111c257506040513d601f19601f820116820180604052508101906111bf9190611f7d565b60015b611246573d80600081146111f2576040519150601f19603f3d011682016040523d82523d6000602084013e6111f7565b606091505b50600081510361123e57836040517f64a0ae9200000000000000000000000000000000000000000000000000000000815260040161123591906119b8565b60405180910390fd5b805181602001fd5b63150b7a0260e01b7bffffffffffffffffffffffffffffffffffffffffffffffffffffffff1916817bffffffffffffffffffffffffffffffffffffffffffffffffffffffff1916146112cf57836040517f64a0ae920000000000000000000000000000000000000000000000000000000081526004016112c691906119b8565b60405180910390fd5b505b50505050565b6060604051806060016040528060358152602001611fd460359139905090565b60006002600083815260200190815260200160002060009054906101000a900473ffffffffffffffffffffffffffffffffffffffff169050919050565b808061136d5750600073ffffffffffffffffffffffffffffffffffffffff168273ffffffffffffffffffffffffffffffffffffffff1614155b156114a157600061137d84610b4d565b9050600073ffffffffffffffffffffffffffffffffffffffff168373ffffffffffffffffffffffffffffffffffffffff16141580156113e857508273ffffffffffffffffffffffffffffffffffffffff168173ffffffffffffffffffffffffffffffffffffffff1614155b80156113fb57506113f981846109c9565b155b1561143d57826040517fa9fbf51f00000000000000000000000000000000000000000000000000000000815260040161143491906119b8565b60405180910390fd5b811561149f57838573ffffffffffffffffffffffffffffffffffffffff168273ffffffffffffffffffffffffffffffffffffffff167f8c5be1e5ebec7d5bd14f71427d1e84f3dd0314c0f7b2291e5b200ac8c7c3b92560405160405180910390a45b505b836004600085815260200190815260200160002060006101000a81548173ffffffffffffffffffffffffffffffffffffffff021916908373ffffffffffffffffffffffffffffffffffffffff16021790555050505050565b61150383836115d9565b6115106000848484611120565b505050565b6115208383836116d2565b6115d457600073ffffffffffffffffffffffffffffffffffffffff168373ffffffffffffffffffffffffffffffffffffffff160361159557806040517f7e27328900000000000000000000000000000000000000000000000000000000815260040161158c9190611a4e565b60405180910390fd5b81816040517f177e802f0000000000000000000000000000000000000000000000000000000081526004016115cb929190611faa565b60405180910390fd5b505050565b600073ffffffffffffffffffffffffffffffffffffffff168273ffffffffffffffffffffffffffffffffffffffff160361164b5760006040517f64a0ae9200000000000000000000000000000000000000000000000000000000815260040161164291906119b8565b60405180910390fd5b600061165983836000610c4a565b9050600073ffffffffffffffffffffffffffffffffffffffff168173ffffffffffffffffffffffffffffffffffffffff16146116cd5760006040517f73c6ac6e0000000000000000000000000000000000000000000000000000000081526004016116c491906119b8565b60405180910390fd5b505050565b60008073ffffffffffffffffffffffffffffffffffffffff168373ffffffffffffffffffffffffffffffffffffffff161415801561178a57508273ffffffffffffffffffffffffffffffffffffffff168473ffffffffffffffffffffffffffffffffffffffff16148061174b575061174a84846109c9565b5b8061178957508273ffffffffffffffffffffffffffffffffffffffff1661177183610bd5565b73ffffffffffffffffffffffffffffffffffffffff16145b5b90509392505050565b6000604051905090565b600080fd5b600080fd5b60007fffffffff0000000000000000000000000000000000000000000000000000000082169050919050565b6117dc816117a7565b81146117e757600080fd5b50565b6000813590506117f9816117d3565b92915050565b6000602082840312156118155761181461179d565b5b6000611823848285016117ea565b91505092915050565b60008115159050919050565b6118418161182c565b82525050565b600060208201905061185c6000830184611838565b92915050565b600081519050919050565b600082825260208201905092915050565b60005b8381101561189c578082015181840152602081019050611881565b60008484015250505050565b6000601f19601f8301169050919050565b60006118c482611862565b6118ce818561186d565b93506118de81856020860161187e565b6118e7816118a8565b840191505092915050565b6000602082019050818103600083015261190c81846118b9565b905092915050565b6000819050919050565b61192781611914565b811461193257600080fd5b50565b6000813590506119448161191e565b92915050565b6000602082840312156119605761195f61179d565b5b600061196e84828501611935565b91505092915050565b600073ffffffffffffffffffffffffffffffffffffffff82169050919050565b60006119a282611977565b9050919050565b6119b281611997565b82525050565b60006020820190506119cd60008301846119a9565b92915050565b6119dc81611997565b81146119e757600080fd5b50565b6000813590506119f9816119d3565b92915050565b60008060408385031215611a1657611a1561179d565b5b6000611a24858286016119ea565b9250506020611a3585828601611935565b9150509250929050565b611a4881611914565b82525050565b6000602082019050611a636000830184611a3f565b92915050565b600080600060608486031215611a8257611a8161179d565b5b6000611a90868287016119ea565b9350506020611aa1868287016119ea565b9250506040611ab286828701611935565b9150509250925092565b600060208284031215611ad257611ad161179d565b5b6000611ae0848285016119ea565b91505092915050565b611af28161182c565b8114611afd57600080fd5b50565b600081359050611b0f81611ae9565b92915050565b60008060408385031215611b2c57611b2b61179d565b5b6000611b3a858286016119ea565b9250506020611b4b85828601611b00565b9150509250929050565b600080fd5b600080fd5b7f4e487b7100000000000000000000000000000000000000000000000000000000600052604160045260246000fd5b611b97826118a8565b810181811067ffffffffffffffff82111715611bb657611bb5611b5f565b5b80604052505050565b6000611bc9611793565b9050611bd58282611b8e565b919050565b600067ffffffffffffffff821115611bf557611bf4611b5f565b5b611bfe826118a8565b9050602081019050919050565b82818337600083830152505050565b6000611c2d611c2884611bda565b611bbf565b905082815260208101848484011115611c4957611c48611b5a565b5b611c54848285611c0b565b509392505050565b600082601f830112611c7157611c70611b55565b5b8135611c81848260208601611c1a565b91505092915050565b60008060008060808587031215611ca457611ca361179d565b5b6000611cb2878288016119ea565b9450506020611cc3878288016119ea565b9350506040611cd487828801611935565b925050606085013567ffffffffffffffff811115611cf557611cf46117a2565b5b611d0187828801611c5c565b91505092959194509250565b60008060408385031215611d2457611d2361179d565b5b6000611d32858286016119ea565b9250506020611d43858286016119ea565b9150509250929050565b7f4e487b7100000000000000000000000000000000000000000000000000000000600052602260045260246000fd5b60006002820490506001821680611d9457607f821691505b602082108103611da757611da6611d4d565b5b50919050565b7f496e73756666696369656e742066756e64732100000000000000000000000000600082015250565b6000611de360138361186d565b9150611dee82611dad565b602082019050919050565b60006020820190508181036000830152611e1281611dd6565b9050919050565b7f4e487b7100000000000000000000000000000000000000000000000000000000600052601160045260246000fd5b6000611e5382611914565b91507fffffffffffffffffffffffffffffffffffffffffffffffffffffffffffffffff8203611e8557611e84611e19565b5b600182019050919050565b6000606082019050611ea560008301866119a9565b611eb26020830185611a3f565b611ebf60408301846119a9565b949350505050565b600081519050919050565b600082825260208201905092915050565b6000611eee82611ec7565b611ef88185611ed2565b9350611f0881856020860161187e565b611f11816118a8565b840191505092915050565b6000608082019050611f3160008301876119a9565b611f3e60208301866119a9565b611f4b6040830185611a3f565b8181036060830152611f5d8184611ee3565b905095945050505050565b600081519050611f77816117d3565b92915050565b600060208284031215611f9357611f9261179d565b5b6000611fa184828501611f68565b91505092915050565b6000604082019050611fbf60008301856119a9565b611fcc6020830184611a3f565b939250505056fe697066733a2f2f516d637551616b50554c4d79314d4a74476a78413350577943665863546577576b32547577474448723847674158a2646970667358221220ba24c3f2e534006156f7175a2de3974acd2597177ac92512e190ee19bcd4728964736f6c63430008180033",
  "linkReferences": {},
  "deployedLinkReferences": {}
}